{
  "contractName": "BountyCreator",
  "abi": [
    {
      "constant": true,
      "inputs": [],
      "name": "creator",
      "outputs": [
        {
          "name": "",
          "type": "address"
        }
      ],
      "payable": false,
      "stateMutability": "view",
      "type": "function"
    },
    {
      "constant": false,
      "inputs": [
        {
          "name": "payee",
          "type": "address"
        }
      ],
      "name": "withdrawPayments",
      "outputs": [],
      "payable": false,
      "stateMutability": "nonpayable",
      "type": "function"
    },
    {
      "constant": true,
      "inputs": [],
      "name": "numberOfBounties",
      "outputs": [
        {
          "name": "",
          "type": "uint256"
        }
      ],
      "payable": false,
      "stateMutability": "view",
      "type": "function"
    },
    {
      "constant": true,
      "inputs": [],
      "name": "currentTime",
      "outputs": [
        {
          "name": "",
          "type": "uint256"
        }
      ],
      "payable": false,
      "stateMutability": "view",
      "type": "function"
    },
    {
      "constant": true,
      "inputs": [
        {
          "name": "dest",
          "type": "address"
        }
      ],
      "name": "payments",
      "outputs": [
        {
          "name": "",
          "type": "uint256"
        }
      ],
      "payable": false,
      "stateMutability": "view",
      "type": "function"
    },
    {
      "constant": true,
      "inputs": [],
      "name": "totalFunding",
      "outputs": [
        {
          "name": "",
          "type": "uint256"
        }
      ],
      "payable": false,
      "stateMutability": "view",
      "type": "function"
    },
    {
      "inputs": [],
      "payable": false,
      "stateMutability": "nonpayable",
      "type": "constructor"
    },
    {
      "anonymous": false,
      "inputs": [
        {
          "indexed": false,
          "name": "bountyID",
          "type": "uint256"
        }
      ],
      "name": "BountyCreated",
      "type": "event"
    },
    {
      "anonymous": false,
      "inputs": [
        {
          "indexed": false,
          "name": "bountyID",
          "type": "uint256"
        },
        {
          "indexed": false,
          "name": "subID",
          "type": "uint256"
        }
      ],
      "name": "SubCreated",
      "type": "event"
    },
    {
      "constant": false,
      "inputs": [
        {
          "name": "_task",
          "type": "string"
        },
        {
          "name": "_expiryTime",
          "type": "uint256"
        }
      ],
      "name": "createBounty",
      "outputs": [
        {
          "name": "bountyID",
          "type": "uint256"
        }
      ],
      "payable": true,
      "stateMutability": "payable",
      "type": "function"
    },
    {
      "constant": true,
      "inputs": [
        {
          "name": "bountyID",
          "type": "uint256"
        }
      ],
      "name": "getBountyDetails",
      "outputs": [
        {
          "name": "",
          "type": "uint256"
        },
        {
          "name": "",
          "type": "uint256"
        },
        {
          "name": "",
          "type": "uint8"
        },
        {
          "name": "",
          "type": "uint256"
        },
        {
          "name": "",
          "type": "uint256"
        }
      ],
      "payable": false,
      "stateMutability": "view",
      "type": "function"
    },
    {
      "constant": false,
      "inputs": [
        {
          "name": "bountyID",
          "type": "uint256"
        },
        {
          "name": "_solution",
          "type": "string"
        }
      ],
      "name": "createSub",
      "outputs": [
        {
          "name": "subID",
          "type": "uint256"
        }
      ],
      "payable": false,
      "stateMutability": "nonpayable",
      "type": "function"
    },
    {
      "constant": true,
      "inputs": [
        {
          "name": "bountyID",
          "type": "uint256"
        },
        {
          "name": "subID",
          "type": "uint256"
        }
      ],
      "name": "getSubDetails",
      "outputs": [
        {
          "name": "",
          "type": "address"
        },
        {
          "name": "",
          "type": "uint8"
        }
      ],
      "payable": false,
      "stateMutability": "view",
      "type": "function"
    }
  ],
  "bytecode": "0x60806040524260055534801561001457600080fd5b5061001d6100bf565b604051809103906000f080158015610039573d6000803e3d6000fd5b506000806101000a81548173ffffffffffffffffffffffffffffffffffffffff021916908373ffffffffffffffffffffffffffffffffffffffff16021790555033600160006101000a81548173ffffffffffffffffffffffffffffffffffffffff021916908373ffffffffffffffffffffffffffffffffffffffff1602179055506100cf565b6040516107cc80610da483390190565b610cc6806100de6000396000f3fe6080604052600436106100a4576000357c0100000000000000000000000000000000000000000000000000000000900463ffffffff16806302d05d3f146100a957806331b3eb94146101005780634678f31f146101515780635844d171146101eb5780639f50617f146102d1578063b83a3bc1146102fc578063d18e81b3146103d5578063e2982c2114610400578063f0f284fc14610465578063fe47a8a7146104de575b600080fd5b3480156100b557600080fd5b506100be610509565b604051808273ffffffffffffffffffffffffffffffffffffffff1673ffffffffffffffffffffffffffffffffffffffff16815260200191505060405180910390f35b34801561010c57600080fd5b5061014f6004803603602081101561012357600080fd5b81019080803573ffffffffffffffffffffffffffffffffffffffff16906020019092919050505061052f565b005b34801561015d57600080fd5b506101946004803603604081101561017457600080fd5b810190808035906020019092919080359060200190929190505050610606565b604051808373ffffffffffffffffffffffffffffffffffffffff1673ffffffffffffffffffffffffffffffffffffffff1681526020018260028111156101d657fe5b60ff1681526020019250505060405180910390f35b3480156101f757600080fd5b506102bb6004803603604081101561020e57600080fd5b81019080803590602001909291908035906020019064010000000081111561023557600080fd5b82018360208201111561024757600080fd5b8035906020019184600183028401116401000000008311171561026957600080fd5b91908080601f016020809104026020016040519081016040528093929190818152602001838380828437600081840152601f19601f820116905080830192505050505050509192919290505050610708565b6040518082815260200191505060405180910390f35b3480156102dd57600080fd5b506102e66108ae565b6040518082815260200191505060405180910390f35b6103bf6004803603604081101561031257600080fd5b810190808035906020019064010000000081111561032f57600080fd5b82018360208201111561034157600080fd5b8035906020019184600183028401116401000000008311171561036357600080fd5b91908080601f016020809104026020016040519081016040528093929190818152602001838380828437600081840152601f19601f820116905080830192505050505050509192919290803590602001909291905050506108b4565b6040518082815260200191505060405180910390f35b3480156103e157600080fd5b506103ea610a31565b6040518082815260200191505060405180910390f35b34801561040c57600080fd5b5061044f6004803603602081101561042357600080fd5b81019080803573ffffffffffffffffffffffffffffffffffffffff169060200190929190505050610a37565b6040518082815260200191505060405180910390f35b34801561047157600080fd5b5061049e6004803603602081101561048857600080fd5b8101908080359060200190929190505050610b35565b604051808681526020018581526020018460018111156104ba57fe5b60ff1681526020018381526020018281526020019550505050505060405180910390f35b3480156104ea57600080fd5b506104f3610bef565b6040518082815260200191505060405180910390f35b600160009054906101000a900473ffffffffffffffffffffffffffffffffffffffff1681565b6000809054906101000a900473ffffffffffffffffffffffffffffffffffffffff1673ffffffffffffffffffffffffffffffffffffffff166351cff8d9826040518263ffffffff167c0100000000000000000000000000000000000000000000000000000000028152600401808273ffffffffffffffffffffffffffffffffffffffff1673ffffffffffffffffffffffffffffffffffffffff168152602001915050600060405180830381600087803b1580156105eb57600080fd5b505af11580156105ff573d6000803e3d6000fd5b5050505050565b600080836000811015801561061c575060025481105b151561062757600080fd5b84846000821015801561063b575060025482105b8015610648575060008110155b80156106695750600460008381526020019081526020016000206002015481105b151561067457600080fd5b60046000888152602001908152602001600020600601600087815260200190815260200160002060000160009054906101000a900473ffffffffffffffffffffffffffffffffffffffff1660046000898152602001908152602001600020600601600088815260200190815260200160002060020160009054906101000a900460ff16819150945094505050509250929050565b600082620151806004600083815260200190815260200160002060050154026004600083815260200190815260200160002060040154014210151561074c57600080fd5b6004600085815260200190815260200160002060020160008154809291906001019190505591506060604051908101604052803373ffffffffffffffffffffffffffffffffffffffff168152602001848152602001600160028111156107ae57fe5b81525060046000868152602001908152602001600020600601600084815260200190815260200160002060008201518160000160006101000a81548173ffffffffffffffffffffffffffffffffffffffff021916908373ffffffffffffffffffffffffffffffffffffffff160217905550602082015181600101908051906020019061083b929190610bf5565b5060408201518160020160006101000a81548160ff0219169083600281111561086057fe5b02179055509050507f3d24dca644a312781113403864482634bab66df6e0b47c111cc7341512a13af28483604051808381526020018281526020019250505060405180910390a15092915050565b60025481565b6000600160009054906101000a900473ffffffffffffffffffffffffffffffffffffffff1673ffffffffffffffffffffffffffffffffffffffff163373ffffffffffffffffffffffffffffffffffffffff1614151561091257600080fd5b6002600081548092919060010191905055905060c060405190810160405280848152602001348152602001600081526020016000600181111561095157fe5b81526020014281526020018381525060046000838152602001908152602001600020600082015181600001908051906020019061098f929190610bf5565b50602082015181600101556040820151816002015560608201518160030160006101000a81548160ff021916908360018111156109c857fe5b02179055506080820151816004015560a08201518160050155905050346003600082825401925050819055507fd213cfe5d89cdaace45766af58a3bf6d48e2e2408543c764db97840016b6f09b816040518082815260200191505060405180910390a192915050565b60055481565b60008060009054906101000a900473ffffffffffffffffffffffffffffffffffffffff1673ffffffffffffffffffffffffffffffffffffffff1663e3a9db1a836040518263ffffffff167c0100000000000000000000000000000000000000000000000000000000028152600401808273ffffffffffffffffffffffffffffffffffffffff1673ffffffffffffffffffffffffffffffffffffffff16815260200191505060206040518083038186803b158015610af357600080fd5b505afa158015610b07573d6000803e3d6000fd5b505050506040513d6020811015610b1d57600080fd5b81019080805190602001909291905050509050919050565b60008060008060008560008110158015610b50575060025481105b1515610b5b57600080fd5b60046000888152602001908152602001600020600101546004600089815260200190815260200160002060020154600460008a815260200190815260200160002060030160009054906101000a900460ff16600460008b815260200190815260200160002060040154600460008c815260200190815260200160002060050154955095509550955095505091939590929450565b60035481565b828054600181600116156101000203166002900490600052602060002090601f016020900481019282601f10610c3657805160ff1916838001178555610c64565b82800160010185558215610c64579182015b82811115610c63578251825591602001919060010190610c48565b5b509050610c719190610c75565b5090565b610c9791905b80821115610c93576000816000905550600101610c7b565b5090565b9056fea165627a7a72305820309cc13c8fea01496a26ad829295a8241709aa7c005d4d6150e5677ab8111ad000296080604052336000806101000a81548173ffffffffffffffffffffffffffffffffffffffff021916908373ffffffffffffffffffffffffffffffffffffffff1602179055507f4101e71e974f68df5e9730cc223280b41654676bbb052cdcc735c3337e64d2d96000809054906101000a900473ffffffffffffffffffffffffffffffffffffffff16604051808273ffffffffffffffffffffffffffffffffffffffff1673ffffffffffffffffffffffffffffffffffffffff16815260200191505060405180910390a16106f5806100d76000396000f3fe60806040526004361061006d576000357c0100000000000000000000000000000000000000000000000000000000900463ffffffff1680632348238c1461007257806351cff8d9146100c3578063c6dbdf6114610114578063e3a9db1a1461016b578063f340fa01146101d0575b600080fd5b34801561007e57600080fd5b506100c16004803603602081101561009557600080fd5b81019080803573ffffffffffffffffffffffffffffffffffffffff169060200190929190505050610214565b005b3480156100cf57600080fd5b50610112600480360360208110156100e657600080fd5b81019080803573ffffffffffffffffffffffffffffffffffffffff169060200190929190505050610372565b005b34801561012057600080fd5b506101296104ef565b604051808273ffffffffffffffffffffffffffffffffffffffff1673ffffffffffffffffffffffffffffffffffffffff16815260200191505060405180910390f35b34801561017757600080fd5b506101ba6004803603602081101561018e57600080fd5b81019080803573ffffffffffffffffffffffffffffffffffffffff169060200190929190505050610518565b6040518082815260200191505060405180910390f35b610212600480360360208110156101e657600080fd5b81019080803573ffffffffffffffffffffffffffffffffffffffff169060200190929190505050610561565b005b6000809054906101000a900473ffffffffffffffffffffffffffffffffffffffff1673ffffffffffffffffffffffffffffffffffffffff163373ffffffffffffffffffffffffffffffffffffffff1614151561026f57600080fd5b600073ffffffffffffffffffffffffffffffffffffffff168173ffffffffffffffffffffffffffffffffffffffff16141515156102ab57600080fd5b806000806101000a81548173ffffffffffffffffffffffffffffffffffffffff021916908373ffffffffffffffffffffffffffffffffffffffff1602179055507f4101e71e974f68df5e9730cc223280b41654676bbb052cdcc735c3337e64d2d96000809054906101000a900473ffffffffffffffffffffffffffffffffffffffff16604051808273ffffffffffffffffffffffffffffffffffffffff1673ffffffffffffffffffffffffffffffffffffffff16815260200191505060405180910390a150565b6000809054906101000a900473ffffffffffffffffffffffffffffffffffffffff1673ffffffffffffffffffffffffffffffffffffffff163373ffffffffffffffffffffffffffffffffffffffff161415156103cd57600080fd5b6000600160008373ffffffffffffffffffffffffffffffffffffffff1673ffffffffffffffffffffffffffffffffffffffff1681526020019081526020016000205490506000600160008473ffffffffffffffffffffffffffffffffffffffff1673ffffffffffffffffffffffffffffffffffffffff168152602001908152602001600020819055508173ffffffffffffffffffffffffffffffffffffffff166108fc829081150290604051600060405180830381858888f1935050505015801561049c573d6000803e3d6000fd5b508173ffffffffffffffffffffffffffffffffffffffff167f7084f5476618d8e60b11ef0d7d3f06914655adb8793e28ff7f018d4c76d505d5826040518082815260200191505060405180910390a25050565b60008060009054906101000a900473ffffffffffffffffffffffffffffffffffffffff16905090565b6000600160008373ffffffffffffffffffffffffffffffffffffffff1673ffffffffffffffffffffffffffffffffffffffff168152602001908152602001600020549050919050565b6000809054906101000a900473ffffffffffffffffffffffffffffffffffffffff1673ffffffffffffffffffffffffffffffffffffffff163373ffffffffffffffffffffffffffffffffffffffff161415156105bc57600080fd5b600034905061061381600160008573ffffffffffffffffffffffffffffffffffffffff1673ffffffffffffffffffffffffffffffffffffffff168152602001908152602001600020546106a890919063ffffffff16565b600160008473ffffffffffffffffffffffffffffffffffffffff1673ffffffffffffffffffffffffffffffffffffffff168152602001908152602001600020819055508173ffffffffffffffffffffffffffffffffffffffff167f2da466a7b24304f47e87fa2e1e5a81b9831ce54fec19055ce277ca2f39ba42c4826040518082815260200191505060405180910390a25050565b60008082840190508381101515156106bf57600080fd5b809150509291505056fea165627a7a72305820e333f68c23b9cc6e27cb443d78317ad386e93f32ff14992dc8287d08f6854cd70029",
  "source": "pragma solidity ^0.5.0;\n\nimport 'openzeppelin-solidity/contracts/payment/PullPayment.sol';\n\ncontract BountyCreator is PullPayment {\n    \n    address public creator;\n    uint public numberOfBounties;\n    uint public totalFunding;\n    mapping (uint => Bounty) bounties;\n    uint public currentTime = now;\n\n    \n    //modifiers\n    modifier onlyCreator() {\n        require(msg.sender == creator);\n        _;\n    }\n\n    modifier validBounty(uint bountyID) {\n        require(bountyID >=0 && bountyID < numberOfBounties);\n        _;\n    }\n\n    modifier validSubmission(uint bountyID, uint subID) {\n        require(bountyID >=0 && bountyID < numberOfBounties && \n                subID >=0 && subID < bounties[bountyID].numberOfSubmissions);\n        _;\n    }\n    \n    modifier isActive(uint bountyID) {\n        require(now < bounties[bountyID].startTime + bounties[bountyID].expiryTime * 1 days);\n        _;\n    }\n\n    \n    //events\n    event BountyCreated(uint bountyID);\n    event SubCreated(uint bountyID, uint subID);\n    \n    enum BountyState {\n        Active,\n        Inactive\n    }\n    \n    enum SubStatus {\n        Accepted,\n        Pending,\n        Rejected\n    }\n    \n    struct Bounty {\n        string task;\n        uint reward;\n        uint numberOfSubmissions;\n        BountyState state;\n        uint startTime;\n        uint expiryTime;\n        mapping(uint => Submission) submissions;\n    }\n    \n    struct Submission {\n        address payable author;\n        string solution;\n        SubStatus status;\n    }\n    \n    constructor() public {\n        creator = msg.sender;\n    }\n    \n    function createBounty(string memory _task, uint _expiryTime) \n        public\n        onlyCreator  \n        payable\n        returns (uint bountyID) \n    {\n        bountyID = numberOfBounties++;\n        bounties[bountyID] = Bounty(_task, msg.value, 0, BountyState.Active, now, _expiryTime);\n        totalFunding += msg.value;\n        emit BountyCreated(bountyID);\n    }\n    \n    function changeReward(uint bountyID, uint newReward) \n        private\n        onlyCreator \n        validBounty(bountyID) \n        isActive(bountyID)\n    {\n        bounties[bountyID].reward = newReward;\n    }\n    \n    function getBountyDetails(uint bountyID) \n        public \n        view \n        validBounty(bountyID)\n        returns(uint, uint, BountyState, uint, uint)\n    {\n        return (\n            bounties[bountyID].reward,\n            bounties[bountyID].numberOfSubmissions,\n            bounties[bountyID].state,\n            bounties[bountyID].startTime,\n            bounties[bountyID].expiryTime\n        );\n    }\n    \n    function createSub(uint bountyID, string memory _solution) \n        public \n        isActive(bountyID)\n        returns(uint subID)\n    {\n        subID = bounties[bountyID].numberOfSubmissions++;\n        bounties[bountyID].submissions[subID] = Submission(msg.sender, _solution, SubStatus.Pending);\n        emit SubCreated(bountyID, subID);\n    }\n    \n    function getSubDetails(uint bountyID, uint subID) \n        public \n        view \n        validBounty(bountyID)\n        validSubmission(bountyID, subID)\n        returns(address, SubStatus)\n    {\n        return (\n            bounties[bountyID].submissions[subID].author,\n            bounties[bountyID].submissions[subID].status\n        );\n    }\n    \n    function acceptSubmission(uint bountyID, uint subID) \n        private \n        onlyCreator \n        validBounty(bountyID)\n        validSubmission(bountyID, subID)\n    {\n        Bounty storage theBounty = bounties[bountyID];\n        uint theReward = theBounty.reward;\n        theBounty.reward = 0;\n        _asyncTransfer(theBounty.submissions[subID].author, theReward);\n        theBounty.state = BountyState.Inactive;\n    }\n}\n\n",
  "sourcePath": "/home/desciple/Amaal/CDP/final-project-smitrajput/contracts/Bounty.sol",
  "compiler": {
    "name": "solc",
    "version": "0.5.0+commit.1d4f565a.Emscripten.clang"
  },
  "schemaVersion": "3.0.1",
  "updatedAt": "2019-01-24T17:30:03.468Z",
  "devdoc": {
    "methods": {
      "payments(address)": {
        "details": "Returns the credit owed to an address.",
        "params": {
          "dest": "The creditor's address."
        }
      },
      "withdrawPayments(address)": {
        "details": "Withdraw accumulated balance.",
        "params": {
          "payee": "Whose balance will be withdrawn."
        }
      }
    }
  },
  "userdoc": {
    "methods": {}
  }
}