{
  "contractName": "Secure",
  "abi": [
    {
      "constant": true,
      "inputs": [],
      "name": "emergencyState",
      "outputs": [
        {
          "name": "",
          "type": "bool"
        }
      ],
      "payable": false,
      "stateMutability": "view",
      "type": "function"
    },
    {
      "constant": false,
      "inputs": [],
      "name": "toggleEmergency",
      "outputs": [],
      "payable": false,
      "stateMutability": "nonpayable",
      "type": "function"
    }
  ],
  "bytecode": "0x608060405260008060006101000a81548160ff02191690831515021790555034801561002a57600080fd5b506102098061003a6000396000f3fe60806040526004361061004c576000357c0100000000000000000000000000000000000000000000000000000000900463ffffffff1680632d1d274414610051578063f8a338a514610068575b600080fd5b34801561005d57600080fd5b50610066610097565b005b34801561007457600080fd5b5061007d6101cb565b604051808215151515815260200191505060405180910390f35b73d14d6f37ff841980f0cfcdf199771ff0d283d88073ffffffffffffffffffffffffffffffffffffffff163373ffffffffffffffffffffffffffffffffffffffff16141515610174576040517f08c379a00000000000000000000000000000000000000000000000000000000081526004018080602001828103825260228152602001807f4f6e6c79206f776e65722063616e2063616c6c20746869732066756e6374696f81526020017f6e2e00000000000000000000000000000000000000000000000000000000000081525060400191505060405180910390fd5b600015156000809054906101000a900460ff16151514156101ae5760016000806101000a81548160ff0219169083151502179055506101c9565b60008060006101000a81548160ff0219169083151502179055505b565b6000809054906101000a900460ff168156fea165627a7a72305820f870e0208208b97fe373d5acc79ae0bfd29375147ac4c6f04742cd7e99c4ccf50029",
  "source": "pragma solidity ^0.5.0;\n\n/** @title Secure \n    @dev Used to create a circuit-breaker in case of an emergency\n    @author Smit Rajput\n*/\ncontract Secure {\n    \n    /** Storage */\n    address payable constant owner = 0xD14d6F37fF841980f0cFCdF199771ff0D283D880;\n    bool public emergencyState = false;\n    \n    /** Modifiers */\n    modifier onlyOwner() {\n        require(\n            msg.sender == owner, \n            \"Only owner can call this function.\"\n        );\n        _;\n    }\n    \n    modifier noEmergency() {\n        require(\n            emergencyState == false,\n            \"Only allowed to call this function in state of no emergency\"\n        );\n        _;\n    }\n    \n    /** @dev To change the state of emergency from true to false and vice-versa \n        Only the owner has the permission to call this function*/\n    function toggleEmergency() public onlyOwner {\n        if(emergencyState == false) {\n            emergencyState = true;\n        } else {\n            emergencyState = false;\n        }\n    }\n    \n}\n",
  "sourcePath": "/home/desciple/Amaal/CDP/final-project-smitrajput/contracts/Secure.sol",
  "compiler": {
    "name": "solc",
    "version": "0.5.0+commit.1d4f565a.Emscripten.clang"
  },
  "schemaVersion": "3.0.1",
  "updatedAt": "2019-01-26T10:56:08.398Z",
  "devdoc": {
    "author": "Smit Rajput",
    "details": "Used to create a circuit-breaker in case of an emergency",
    "methods": {
      "toggleEmergency()": {
        "details": "To change the state of emergency from true to false and vice-versa  Only the owner has the permission to call this function"
      }
    },
    "title": "Secure "
  },
  "userdoc": {
    "methods": {}
  }
}