{
  "contractName": "BountyCreator",
  "abi": [
    {
      "constant": true,
      "inputs": [],
      "name": "creatorName",
      "outputs": [
        {
          "name": "",
          "type": "string"
        }
      ],
      "payable": false,
      "stateMutability": "view",
      "type": "function",
      "signature": "0x1f6f90bd"
    },
    {
      "constant": false,
      "inputs": [],
      "name": "toggleEmergency",
      "outputs": [],
      "payable": false,
      "stateMutability": "nonpayable",
      "type": "function",
      "signature": "0x2d1d2744"
    },
    {
      "constant": true,
      "inputs": [],
      "name": "numberOfBounties",
      "outputs": [
        {
          "name": "",
          "type": "uint256"
        }
      ],
      "payable": false,
      "stateMutability": "view",
      "type": "function",
      "signature": "0x9f50617f"
    },
    {
      "constant": true,
      "inputs": [],
      "name": "currentTime",
      "outputs": [
        {
          "name": "",
          "type": "uint256"
        }
      ],
      "payable": false,
      "stateMutability": "view",
      "type": "function",
      "signature": "0xd18e81b3"
    },
    {
      "constant": true,
      "inputs": [],
      "name": "creatorAddress",
      "outputs": [
        {
          "name": "",
          "type": "address"
        }
      ],
      "payable": false,
      "stateMutability": "view",
      "type": "function",
      "signature": "0xe927fc5c"
    },
    {
      "constant": true,
      "inputs": [],
      "name": "emergencyState",
      "outputs": [
        {
          "name": "",
          "type": "bool"
        }
      ],
      "payable": false,
      "stateMutability": "view",
      "type": "function",
      "signature": "0xf8a338a5"
    },
    {
      "constant": true,
      "inputs": [],
      "name": "totalFunding",
      "outputs": [
        {
          "name": "",
          "type": "uint256"
        }
      ],
      "payable": false,
      "stateMutability": "view",
      "type": "function",
      "signature": "0xfe47a8a7"
    },
    {
      "inputs": [
        {
          "name": "name",
          "type": "string"
        },
        {
          "name": "_creatorAddress",
          "type": "address"
        }
      ],
      "payable": false,
      "stateMutability": "nonpayable",
      "type": "constructor",
      "signature": "constructor"
    },
    {
      "anonymous": false,
      "inputs": [
        {
          "indexed": false,
          "name": "bountyID",
          "type": "uint256"
        }
      ],
      "name": "BountyCreated",
      "type": "event",
      "signature": "0xd213cfe5d89cdaace45766af58a3bf6d48e2e2408543c764db97840016b6f09b"
    },
    {
      "anonymous": false,
      "inputs": [
        {
          "indexed": false,
          "name": "bountyID",
          "type": "uint256"
        },
        {
          "indexed": false,
          "name": "newReward",
          "type": "uint256"
        }
      ],
      "name": "RewardChanged",
      "type": "event",
      "signature": "0x453d330bbd1ce32fd7bfa00c1af928bb5abe16a97e3d0188e53fbef00b8e293a"
    },
    {
      "anonymous": false,
      "inputs": [
        {
          "indexed": false,
          "name": "bountyID",
          "type": "uint256"
        },
        {
          "indexed": false,
          "name": "subID",
          "type": "uint256"
        }
      ],
      "name": "SubCreated",
      "type": "event",
      "signature": "0x3d24dca644a312781113403864482634bab66df6e0b47c111cc7341512a13af2"
    },
    {
      "anonymous": false,
      "inputs": [
        {
          "indexed": true,
          "name": "author",
          "type": "address"
        },
        {
          "indexed": false,
          "name": "reward",
          "type": "uint256"
        }
      ],
      "name": "SubAccepted",
      "type": "event",
      "signature": "0x074b5963aef05b900a7051fc17aa8f7577fb24a5a9d43abeef5958cd996e110b"
    },
    {
      "constant": false,
      "inputs": [],
      "name": "kill",
      "outputs": [],
      "payable": false,
      "stateMutability": "nonpayable",
      "type": "function",
      "signature": "0x41c0e1b5"
    },
    {
      "constant": false,
      "inputs": [
        {
          "name": "_task",
          "type": "string"
        },
        {
          "name": "_expiryTime",
          "type": "uint256"
        }
      ],
      "name": "createBounty",
      "outputs": [
        {
          "name": "bountyID",
          "type": "uint256"
        }
      ],
      "payable": true,
      "stateMutability": "payable",
      "type": "function",
      "signature": "0xb83a3bc1"
    },
    {
      "constant": true,
      "inputs": [
        {
          "name": "bountyID",
          "type": "uint256"
        }
      ],
      "name": "getBountyDetails",
      "outputs": [
        {
          "name": "",
          "type": "string"
        },
        {
          "name": "",
          "type": "uint256"
        },
        {
          "name": "",
          "type": "uint256"
        },
        {
          "name": "",
          "type": "uint8"
        },
        {
          "name": "",
          "type": "uint256"
        },
        {
          "name": "",
          "type": "uint256"
        }
      ],
      "payable": false,
      "stateMutability": "view",
      "type": "function",
      "signature": "0xf0f284fc"
    },
    {
      "constant": false,
      "inputs": [
        {
          "name": "bountyID",
          "type": "uint256"
        },
        {
          "name": "_solution",
          "type": "string"
        }
      ],
      "name": "createSub",
      "outputs": [
        {
          "name": "subID",
          "type": "uint256"
        }
      ],
      "payable": false,
      "stateMutability": "nonpayable",
      "type": "function",
      "signature": "0x5844d171"
    },
    {
      "constant": true,
      "inputs": [
        {
          "name": "bountyID",
          "type": "uint256"
        },
        {
          "name": "subID",
          "type": "uint256"
        }
      ],
      "name": "getSubDetails",
      "outputs": [
        {
          "name": "",
          "type": "string"
        },
        {
          "name": "",
          "type": "address"
        },
        {
          "name": "",
          "type": "uint8"
        }
      ],
      "payable": false,
      "stateMutability": "view",
      "type": "function",
      "signature": "0x4678f31f"
    },
    {
      "constant": false,
      "inputs": [
        {
          "name": "bountyID",
          "type": "uint256"
        },
        {
          "name": "subID",
          "type": "uint256"
        }
      ],
      "name": "acceptSubmission",
      "outputs": [],
      "payable": false,
      "stateMutability": "nonpayable",
      "type": "function",
      "signature": "0xb1804ffb"
    }
  ],
  "bytecode": "0x608060405260008060006101000a81548160ff021916908315150217905550426005553480156200002f57600080fd5b50604051620017e3380380620017e3833981018060405260408110156200005557600080fd5b8101908080516401000000008111156200006e57600080fd5b828101905060208101848111156200008557600080fd5b8151856001820283011164010000000082111715620000a357600080fd5b50509291906020018051906020019092919050505080600060016101000a81548173ffffffffffffffffffffffffffffffffffffffff021916908373ffffffffffffffffffffffffffffffffffffffff1602179055508160019080519060200190620001119291906200011a565b505050620001c9565b828054600181600116156101000203166002900490600052602060002090601f016020900481019282601f106200015d57805160ff19168380011785556200018e565b828001600101855582156200018e579182015b828111156200018d57825182559160200191906001019062000170565b5b5090506200019d9190620001a1565b5090565b620001c691905b80821115620001c2576000816000905550600101620001a8565b5090565b90565b61160a80620001d96000396000f3fe6080604052600436106100c5576000357c0100000000000000000000000000000000000000000000000000000000900463ffffffff1680631f6f90bd146100ca5780632d1d27441461015a57806341c0e1b5146101715780634678f31f146101885780635844d1711461028e5780639f50617f14610374578063b1804ffb1461039f578063b83a3bc1146103e4578063d18e81b3146104bd578063e927fc5c146104e8578063f0f284fc1461053f578063f8a338a514610624578063fe47a8a714610653575b600080fd5b3480156100d657600080fd5b506100df61067e565b6040518080602001828103825283818151815260200191508051906020019080838360005b8381101561011f578082015181840152602081019050610104565b50505050905090810190601f16801561014c5780820380516001836020036101000a031916815260200191505b509250505060405180910390f35b34801561016657600080fd5b5061016f61071c565b005b34801561017d57600080fd5b50610186610850565b005b34801561019457600080fd5b506101cb600480360360408110156101ab57600080fd5b81019080803590602001909291908035906020019092919050505061095a565b60405180806020018473ffffffffffffffffffffffffffffffffffffffff1673ffffffffffffffffffffffffffffffffffffffff16815260200183600281111561021157fe5b60ff168152602001828103825285818151815260200191508051906020019080838360005b83811015610251578082015181840152602081019050610236565b50505050905090810190601f16801561027e5780820380516001836020036101000a031916815260200191505b5094505050505060405180910390f35b34801561029a57600080fd5b5061035e600480360360408110156102b157600080fd5b8101908080359060200190929190803590602001906401000000008111156102d857600080fd5b8201836020820111156102ea57600080fd5b8035906020019184600183028401116401000000008311171561030c57600080fd5b91908080601f016020809104026020016040519081016040528093929190818152602001838380828437600081840152601f19601f820116905080830192505050505050509192919290505050610b26565b6040518082815260200191505060405180910390f35b34801561038057600080fd5b50610389610d7c565b6040518082815260200191505060405180910390f35b3480156103ab57600080fd5b506103e2600480360360408110156103c257600080fd5b810190808035906020019092919080359060200190929190505050610d82565b005b6104a7600480360360408110156103fa57600080fd5b810190808035906020019064010000000081111561041757600080fd5b82018360208201111561042957600080fd5b8035906020019184600183028401116401000000008311171561044b57600080fd5b91908080601f016020809104026020016040519081016040528093929190818152602001838380828437600081840152601f19601f82011690508083019250505050505050919291929080359060200190929190505050611159565b6040518082815260200191505060405180910390f35b3480156104c957600080fd5b506104d2611385565b6040518082815260200191505060405180910390f35b3480156104f457600080fd5b506104fd61138b565b604051808273ffffffffffffffffffffffffffffffffffffffff1673ffffffffffffffffffffffffffffffffffffffff16815260200191505060405180910390f35b34801561054b57600080fd5b506105786004803603602081101561056257600080fd5b81019080803590602001909291905050506113b1565b604051808060200187815260200186815260200185600181111561059857fe5b60ff168152602001848152602001838152602001828103825288818151815260200191508051906020019080838360005b838110156105e45780820151818401526020810190506105c9565b50505050905090810190601f1680156106115780820380516001836020036101000a031916815260200191505b5097505050505050505060405180910390f35b34801561063057600080fd5b50610639611521565b604051808215151515815260200191505060405180910390f35b34801561065f57600080fd5b50610668611533565b6040518082815260200191505060405180910390f35b60018054600181600116156101000203166002900480601f0160208091040260200160405190810160405280929190818152602001828054600181600116156101000203166002900480156107145780601f106106e957610100808354040283529160200191610714565b820191906000526020600020905b8154815290600101906020018083116106f757829003601f168201915b505050505081565b73d14d6f37ff841980f0cfcdf199771ff0d283d88073ffffffffffffffffffffffffffffffffffffffff163373ffffffffffffffffffffffffffffffffffffffff161415156107f9576040517f08c379a00000000000000000000000000000000000000000000000000000000081526004018080602001828103825260228152602001807f4f6e6c79206f776e65722063616e2063616c6c20746869732066756e6374696f81526020017f6e2e00000000000000000000000000000000000000000000000000000000000081525060400191505060405180910390fd5b600015156000809054906101000a900460ff16151514156108335760016000806101000a81548160ff02191690831515021790555061084e565b60008060006101000a81548160ff0219169083151502179055505b565b73d14d6f37ff841980f0cfcdf199771ff0d283d88073ffffffffffffffffffffffffffffffffffffffff163373ffffffffffffffffffffffffffffffffffffffff1614151561092d576040517f08c379a00000000000000000000000000000000000000000000000000000000081526004018080602001828103825260228152602001807f4f6e6c79206f776e65722063616e2063616c6c20746869732066756e6374696f81526020017f6e2e00000000000000000000000000000000000000000000000000000000000081525060400191505060405180910390fd5b73d14d6f37ff841980f0cfcdf199771ff0d283d88073ffffffffffffffffffffffffffffffffffffffff16ff5b60606000808460008110158015610972575060025481105b151561097d57600080fd5b858560008210158015610991575060025482105b801561099e575060008110155b80156109bf5750600460008381526020019081526020016000206002015481105b15156109ca57600080fd5b600460008981526020019081526020016000206006016000888152602001908152602001600020600101600460008a8152602001908152602001600020600601600089815260200190815260200160002060000160009054906101000a900473ffffffffffffffffffffffffffffffffffffffff16600460008b815260200190815260200160002060060160008a815260200190815260200160002060020160009054906101000a900460ff16828054600181600116156101000203166002900480601f016020809104026020016040519081016040528092919081815260200182805460018160011615610100020316600290048015610b0c5780601f10610ae157610100808354040283529160200191610b0c565b820191906000526020600020905b815481529060010190602001808311610aef57829003601f168201915b505050505092508191509550955095505050509250925092565b6000826201518060046000838152602001908152602001600020600501540260046000838152602001908152602001600020600401540142101515610b6a57600080fd5b600015156000809054906101000a900460ff161515141515610c1a576040517f08c379a000000000000000000000000000000000000000000000000000000000815260040180806020018281038252603b8152602001807f4f6e6c7920616c6c6f77656420746f2063616c6c20746869732066756e63746981526020017f6f6e20696e207374617465206f66206e6f20656d657267656e6379000000000081525060400191505060405180910390fd5b6004600085815260200190815260200160002060020160008154809291906001019190505591506060604051908101604052803373ffffffffffffffffffffffffffffffffffffffff16815260200184815260200160016002811115610c7c57fe5b81525060046000868152602001908152602001600020600601600084815260200190815260200160002060008201518160000160006101000a81548173ffffffffffffffffffffffffffffffffffffffff021916908373ffffffffffffffffffffffffffffffffffffffff1602179055506020820151816001019080519060200190610d09929190611539565b5060408201518160020160006101000a81548160ff02191690836002811115610d2e57fe5b02179055509050507f3d24dca644a312781113403864482634bab66df6e0b47c111cc7341512a13af28483604051808381526020018281526020019250505060405180910390a15092915050565b60025481565b600060019054906101000a900473ffffffffffffffffffffffffffffffffffffffff1673ffffffffffffffffffffffffffffffffffffffff163373ffffffffffffffffffffffffffffffffffffffff16141515610dde57600080fd5b8160008110158015610df1575060025481105b1515610dfc57600080fd5b828260008210158015610e10575060025482105b8015610e1d575060008110155b8015610e3e5750600460008381526020019081526020016000206002015481105b1515610e4957600080fd5b600015156000809054906101000a900460ff161515141515610ef9576040517f08c379a000000000000000000000000000000000000000000000000000000000815260040180806020018281038252603b8152602001807f4f6e6c7920616c6c6f77656420746f2063616c6c20746869732066756e63746981526020017f6f6e20696e207374617465206f66206e6f20656d657267656e6379000000000081525060400191505060405180910390fd5b600060046000878152602001908152602001600020905060008160010154905060008260010154118015610f54575060006001811115610f3557fe5b8260030160009054906101000a900460ff166001811115610f5257fe5b145b8015611000575081600601600087815260200190815260200160002060000160009054906101000a900473ffffffffffffffffffffffffffffffffffffffff1673ffffffffffffffffffffffffffffffffffffffff16318183600601600089815260200190815260200160002060000160009054906101000a900473ffffffffffffffffffffffffffffffffffffffff1673ffffffffffffffffffffffffffffffffffffffff16310110155b151561100b57600080fd5b600082600101819055508060036000828254039250508190555060018260030160006101000a81548160ff0219169083600181111561104657fe5b021790555081600601600087815260200190815260200160002060000160009054906101000a900473ffffffffffffffffffffffffffffffffffffffff1673ffffffffffffffffffffffffffffffffffffffff166108fc829081150290604051600060405180830381858888f193505050501580156110c9573d6000803e3d6000fd5b5081600601600087815260200190815260200160002060000160009054906101000a900473ffffffffffffffffffffffffffffffffffffffff1673ffffffffffffffffffffffffffffffffffffffff167f074b5963aef05b900a7051fc17aa8f7577fb24a5a9d43abeef5958cd996e110b826040518082815260200191505060405180910390a250505050505050565b60008060019054906101000a900473ffffffffffffffffffffffffffffffffffffffff1673ffffffffffffffffffffffffffffffffffffffff163373ffffffffffffffffffffffffffffffffffffffff161415156111b657600080fd5b600015156000809054906101000a900460ff161515141515611266576040517f08c379a000000000000000000000000000000000000000000000000000000000815260040180806020018281038252603b8152602001807f4f6e6c7920616c6c6f77656420746f2063616c6c20746869732066756e63746981526020017f6f6e20696e207374617465206f66206e6f20656d657267656e6379000000000081525060400191505060405180910390fd5b6002600081548092919060010191905055905060c06040519081016040528084815260200134815260200160008152602001600060018111156112a557fe5b8152602001428152602001838152506004600083815260200190815260200160002060008201518160000190805190602001906112e3929190611539565b50602082015181600101556040820151816002015560608201518160030160006101000a81548160ff0219169083600181111561131c57fe5b02179055506080820151816004015560a08201518160050155905050346003600082825401925050819055507fd213cfe5d89cdaace45766af58a3bf6d48e2e2408543c764db97840016b6f09b816040518082815260200191505060405180910390a192915050565b60055481565b600060019054906101000a900473ffffffffffffffffffffffffffffffffffffffff1681565b6060600080600080600086600081101580156113ce575060025481105b15156113d957600080fd5b60046000898152602001908152602001600020600001600460008a815260200190815260200160002060010154600460008b815260200190815260200160002060020154600460008c815260200190815260200160002060030160009054906101000a900460ff16600460008d815260200190815260200160002060040154600460008e815260200190815260200160002060050154858054600181600116156101000203166002900480601f0160208091040260200160405190810160405280929190818152602001828054600181600116156101000203166002900480156115045780601f106114d957610100808354040283529160200191611504565b820191906000526020600020905b8154815290600101906020018083116114e757829003601f168201915b505050505095509650965096509650965096505091939550919395565b6000809054906101000a900460ff1681565b60035481565b828054600181600116156101000203166002900490600052602060002090601f016020900481019282601f1061157a57805160ff19168380011785556115a8565b828001600101855582156115a8579182015b828111156115a757825182559160200191906001019061158c565b5b5090506115b591906115b9565b5090565b6115db91905b808211156115d75760008160009055506001016115bf565b5090565b9056fea165627a7a72305820455485b86c508645c1c69c9dd4d55b98605750dfeb1a8b5dad60b692a21601b40029",
  "source": "pragma solidity ^0.5.0;\n\nimport './Secure.sol';\n\n/** @title BountyCreator \n    @dev The contract representing a person who created a bounty on this dapp\n    @author Smit Rajput\n*/\ncontract BountyCreator is Secure {\n    \n    /** Storage */\n    address public creatorAddress;\n    string public creatorName;\n    uint public numberOfBounties;\n    uint public totalFunding;\n    mapping (uint => Bounty) bounties;\n    uint public currentTime = now;\n    \n    /** Events */\n    event BountyCreated(uint bountyID);\n    event RewardChanged(uint bountyID, uint newReward);\n    event SubCreated(uint bountyID, uint subID);\n    event SubAccepted(address indexed author, uint reward);\n    \n    /** Enums (custom constant data types) */\n    enum BountyState {\n        Active,\n        Inactive\n    }\n    \n    enum SubStatus {\n        Accepted,\n        Pending,\n        Rejected\n    }\n    \n    /** Structs (custom variable data types) */\n    struct Bounty {\n        string task;\n        uint reward;\n        uint numberOfSubmissions;\n        BountyState state;\n        uint startTime;\n        uint expiryTime;\n        mapping(uint => Submission) submissions;\n    }\n    \n    struct Submission {\n        address payable author;\n        string solution;\n        SubStatus status;\n    }\n\n    /** Modifiers */\n    modifier onlyCreator() {\n        require(msg.sender == creatorAddress);\n        _;\n    }\n\n    modifier validBounty(uint bountyID) {\n        require(bountyID >=0 && bountyID < numberOfBounties);\n        _;\n    }\n\n    modifier validSubmission(uint bountyID, uint subID) {\n        require(bountyID >=0 && bountyID < numberOfBounties && \n                subID >=0 && subID < bounties[bountyID].numberOfSubmissions);\n        _;\n    }\n    \n    modifier isActive(uint bountyID) {\n        require(now < bounties[bountyID].startTime + bounties[bountyID].expiryTime * 1 days);\n        _;\n    }\n\n    /** @dev The constructor to create this contract\n        @param name Name of the bounty-creator\n        @param _creatorAddress Address of the bounty-creator\n     */\n    constructor(string memory name, address _creatorAddress) public {\n        creatorAddress = _creatorAddress;\n        creatorName = name;\n    }\n    \n    /** @dev To destroy this contract once the bounty-creator leaves the dapp permanently\n        Only the dapp-owner can call this function\n     */\n    function kill() public onlyOwner {\n        selfdestruct(owner);\n    }\n    \n    /** @dev To create a bounty\n        @param _task The bounty description\n        @param _expiryTime Deadline to finish the bounty\n        @return bountyID The ID of the new bounty\n     */\n    function createBounty(string memory _task, uint _expiryTime) \n        public\n        onlyCreator \n        noEmergency\n        payable\n        returns (uint bountyID) \n    {\n        bountyID = numberOfBounties++;\n        bounties[bountyID] = Bounty(_task, msg.value, 0, BountyState.Active, now, _expiryTime);\n        totalFunding += msg.value;\n        emit BountyCreated(bountyID);\n    }\n    \n    /** @dev To change the prize/reward of a bounty\n        @param bountyID The ID of the bounty to change the reward of\n        @param newReward The new reward to assign to the bounty\n     */\n    function changeReward(uint bountyID, uint newReward) \n        private\n        onlyCreator \n        validBounty(bountyID) \n        isActive(bountyID)\n    {\n        bounties[bountyID].reward = newReward;\n        emit RewardChanged(bountyID, newReward);\n    }\n    \n    /** @dev To receive the complete details of a bounty\n        @param bountyID The ID of the bounty to receive the details of\n        @return All the details of the bounty, corresponding to bountyID\n     */\n    function getBountyDetails(uint bountyID) \n        public \n        view \n        validBounty(bountyID)\n        returns(string memory, uint, uint, BountyState, uint, uint)\n    {\n        return (\n            bounties[bountyID].task,\n            bounties[bountyID].reward,\n            bounties[bountyID].numberOfSubmissions,\n            bounties[bountyID].state,\n            bounties[bountyID].startTime,\n            bounties[bountyID].expiryTime\n        );\n    }\n    \n    /** @dev To create a submission for a bounty\n        @param bountyID The ID of the bounty to submit to\n        @param _solution The solution to the bounty\n        @return subID The ID of the new submission\n     */\n    function createSub(uint bountyID, string memory _solution) \n        public \n        isActive(bountyID)\n        noEmergency\n        returns(uint subID)\n    {\n        subID = bounties[bountyID].numberOfSubmissions++;\n        bounties[bountyID].submissions[subID] = Submission(msg.sender, _solution, SubStatus.Pending);\n        emit SubCreated(bountyID, subID);\n    }\n    \n    /** @dev To receive the complete details of a submission to a bounty\n        @param bountyID The ID of the bounty to which the submission belongs\n        @param subID The ID of the submission to receive the details of\n        @return All the details of the submission corresponding to the bountyID and subID\n     */\n    function getSubDetails(uint bountyID, uint subID) \n        public \n        view \n        validBounty(bountyID)\n        validSubmission(bountyID, subID)\n        returns(string memory, address, SubStatus)\n    {\n        return (\n            bounties[bountyID].submissions[subID].solution,\n            bounties[bountyID].submissions[subID].author,\n            bounties[bountyID].submissions[subID].status\n        );\n    }\n    \n    /** @dev To accept a particular submission to a bounty and pay him/her the reward\n        @param bountyID The ID of the bounty to which the winning submission belongs\n        @param subID The ID of the winning submission\n        Only the bounty-creator can call this function, and that too in the state of no emergency\n     */\n    function acceptSubmission(uint bountyID, uint subID) \n        public \n        onlyCreator \n        validBounty(bountyID)\n        validSubmission(bountyID, subID)\n        noEmergency\n    {\n        Bounty storage theBounty = bounties[bountyID];\n        uint theReward = theBounty.reward;\n        require(\n            theBounty.reward > 0 &&\n            theBounty.state == BountyState.Active &&\n            theBounty.submissions[subID].author.balance + theReward\n            >= theBounty.submissions[subID].author.balance\n        );\n        theBounty.reward = 0;\n        totalFunding -= theReward;\n        theBounty.state = BountyState.Inactive;\n        theBounty.submissions[subID].author.transfer(theReward);\n        emit SubAccepted(theBounty.submissions[subID].author, theReward);\n    }\n}",
  "sourcePath": "/home/desciple/Amaal/CDP/final-project-smitrajput/contracts/BountyCreator.sol",
  "compiler": {
    "name": "solc",
    "version": "0.5.0+commit.1d4f565a.Emscripten.clang"
  },
  "schemaVersion": "3.0.1",
  "updatedAt": "2019-01-26T11:22:54.461Z",
  "devdoc": {
    "author": "Smit Rajput",
    "details": "The contract representing a person who created a bounty on this dapp",
    "methods": {
      "acceptSubmission(uint256,uint256)": {
        "details": "To accept a particular submission to a bounty and pay him/her the reward",
        "params": {
          "bountyID": "The ID of the bounty to which the winning submission belongs",
          "subID": "The ID of the winning submission Only the bounty-creator can call this function, and that too in the state of no emergency"
        }
      },
      "constructor": {
        "details": "The constructor to create this contract",
        "params": {
          "_creatorAddress": "Address of the bounty-creator",
          "name": "Name of the bounty-creator"
        }
      },
      "createBounty(string,uint256)": {
        "details": "To create a bounty",
        "params": {
          "_expiryTime": "Deadline to finish the bounty",
          "_task": "The bounty description"
        },
        "return": "bountyID The ID of the new bounty"
      },
      "createSub(uint256,string)": {
        "details": "To create a submission for a bounty",
        "params": {
          "_solution": "The solution to the bounty",
          "bountyID": "The ID of the bounty to submit to"
        },
        "return": "subID The ID of the new submission"
      },
      "getBountyDetails(uint256)": {
        "details": "To receive the complete details of a bounty",
        "params": {
          "bountyID": "The ID of the bounty to receive the details of"
        },
        "return": "All the details of the bounty, corresponding to bountyID"
      },
      "getSubDetails(uint256,uint256)": {
        "details": "To receive the complete details of a submission to a bounty",
        "params": {
          "bountyID": "The ID of the bounty to which the submission belongs",
          "subID": "The ID of the submission to receive the details of"
        },
        "return": "All the details of the submission corresponding to the bountyID and subID"
      },
      "kill()": {
        "details": "To destroy this contract once the bounty-creator leaves the dapp permanently Only the dapp-owner can call this function"
      },
      "toggleEmergency()": {
        "details": "To change the state of emergency from true to false and vice-versa  Only the owner has the permission to call this function"
      }
    },
    "title": "BountyCreator "
  },
  "userdoc": {
    "methods": {}
  }
}